{
	"Lottery/lottery.sol": {
		"Lottery": {
			"abi": [
				{
					"inputs": [],
					"stateMutability": "nonpayable",
					"type": "constructor"
				},
				{
					"inputs": [],
					"name": "getBalance",
					"outputs": [
						{
							"internalType": "uint256",
							"name": "",
							"type": "uint256"
						}
					],
					"stateMutability": "view",
					"type": "function"
				},
				{
					"inputs": [],
					"name": "manager",
					"outputs": [
						{
							"internalType": "address",
							"name": "",
							"type": "address"
						}
					],
					"stateMutability": "view",
					"type": "function"
				},
				{
					"inputs": [
						{
							"internalType": "uint256",
							"name": "",
							"type": "uint256"
						}
					],
					"name": "participants",
					"outputs": [
						{
							"internalType": "address payable",
							"name": "",
							"type": "address"
						}
					],
					"stateMutability": "view",
					"type": "function"
				},
				{
					"inputs": [],
					"name": "random",
					"outputs": [
						{
							"internalType": "uint256",
							"name": "",
							"type": "uint256"
						}
					],
					"stateMutability": "view",
					"type": "function"
				},
				{
					"inputs": [],
					"name": "selectWinner",
					"outputs": [],
					"stateMutability": "nonpayable",
					"type": "function"
				},
				{
					"stateMutability": "payable",
					"type": "receive"
				}
			],
			"devdoc": {
				"kind": "dev",
				"methods": {},
				"version": 1
			},
			"evm": {
				"assembly": "    /* \"Lottery/lottery.sol\":70:985  contract Lottery {... */\n  mstore(0x40, 0x80)\n    /* \"Lottery/lottery.sol\":165:213  constructor(){... */\n  callvalue\n  dup1\n  iszero\n  tag_1\n  jumpi\n  revert(0x00, 0x00)\ntag_1:\n  pop\n    /* \"Lottery/lottery.sol\":196:206  msg.sender */\n  caller\n    /* \"Lottery/lottery.sol\":188:195  manager */\n  0x00\n  0x00\n    /* \"Lottery/lottery.sol\":188:206  manager=msg.sender */\n  0x0100\n  exp\n  dup2\n  sload\n  dup2\n  0xffffffffffffffffffffffffffffffffffffffff\n  mul\n  not\n  and\n  swap1\n  dup4\n  0xffffffffffffffffffffffffffffffffffffffff\n  and\n  mul\n  or\n  swap1\n  sstore\n  pop\n    /* \"Lottery/lottery.sol\":70:985  contract Lottery {... */\n  dataSize(sub_0)\n  dup1\n  dataOffset(sub_0)\n  0x00\n  codecopy\n  0x00\n  return\nstop\n\nsub_0: assembly {\n        /* \"Lottery/lottery.sol\":70:985  contract Lottery {... */\n      mstore(0x40, 0x80)\n      jumpi(tag_1, lt(calldatasize, 0x04))\n      shr(0xe0, calldataload(0x00))\n      dup1\n      0x12065fe0\n      eq\n      tag_3\n      jumpi\n      dup1\n      0x33a99e04\n      eq\n      tag_4\n      jumpi\n      dup1\n      0x35c1d349\n      eq\n      tag_5\n      jumpi\n      dup1\n      0x481c6a75\n      eq\n      tag_6\n      jumpi\n      dup1\n      0x5ec01e4d\n      eq\n      tag_7\n      jumpi\n      jump(tag_2)\n    tag_1:\n      jumpi(tag_2, calldatasize)\n        /* \"Lottery/lottery.sol\":276:283  1 ether */\n      0x0de0b6b3a7640000\n        /* \"Lottery/lottery.sol\":265:274  msg.value */\n      callvalue\n        /* \"Lottery/lottery.sol\":265:283  msg.value==1 ether */\n      eq\n        /* \"Lottery/lottery.sol\":257:284  require(msg.value==1 ether) */\n      tag_10\n      jumpi\n      revert(0x00, 0x00)\n    tag_10:\n        /* \"Lottery/lottery.sol\":294:306  participants */\n      0x01\n        /* \"Lottery/lottery.sol\":320:330  msg.sender */\n      caller\n        /* \"Lottery/lottery.sol\":294:332  participants.push(payable(msg.sender)) */\n      swap1\n      dup1\n      0x01\n      dup2\n      sload\n      add\n      dup1\n      dup3\n      sstore\n      dup1\n      swap2\n      pop\n      pop\n      0x01\n      swap1\n      sub\n      swap1\n      0x00\n      mstore\n      keccak256(0x00, 0x20)\n      add\n      0x00\n      swap1\n      swap2\n      swap1\n      swap2\n      swap1\n      swap2\n      0x0100\n      exp\n      dup2\n      sload\n      dup2\n      0xffffffffffffffffffffffffffffffffffffffff\n      mul\n      not\n      and\n      swap1\n      dup4\n      0xffffffffffffffffffffffffffffffffffffffff\n      and\n      mul\n      or\n      swap1\n      sstore\n      stop\n        /* \"Lottery/lottery.sol\":70:985  contract Lottery {... */\n    tag_2:\n      revert(0x00, 0x00)\n        /* \"Lottery/lottery.sol\":345:474  function getBalance() view public returns(uint){... */\n    tag_3:\n      callvalue\n      dup1\n      iszero\n      tag_12\n      jumpi\n      revert(0x00, 0x00)\n    tag_12:\n      pop\n      tag_13\n      tag_14\n      jump\t// in\n    tag_13:\n      mload(0x40)\n      tag_15\n      swap2\n      swap1\n      tag_16\n      jump\t// in\n    tag_15:\n      mload(0x40)\n      dup1\n      swap2\n      sub\n      swap1\n      return\n        /* \"Lottery/lottery.sol\":669:979  function selectWinner() public {... */\n    tag_4:\n      callvalue\n      dup1\n      iszero\n      tag_17\n      jumpi\n      revert(0x00, 0x00)\n    tag_17:\n      pop\n      tag_18\n      tag_19\n      jump\t// in\n    tag_18:\n      stop\n        /* \"Lottery/lottery.sol\":121:158  address payable[] public participants */\n    tag_5:\n      callvalue\n      dup1\n      iszero\n      tag_20\n      jumpi\n      revert(0x00, 0x00)\n    tag_20:\n      pop\n      tag_21\n      0x04\n      dup1\n      calldatasize\n      sub\n      dup2\n      add\n      swap1\n      tag_22\n      swap2\n      swap1\n      tag_23\n      jump\t// in\n    tag_22:\n      tag_24\n      jump\t// in\n    tag_21:\n      mload(0x40)\n      tag_25\n      swap2\n      swap1\n      tag_26\n      jump\t// in\n    tag_25:\n      mload(0x40)\n      dup1\n      swap2\n      sub\n      swap1\n      return\n        /* \"Lottery/lottery.sol\":93:115  address public manager */\n    tag_6:\n      callvalue\n      dup1\n      iszero\n      tag_27\n      jumpi\n      revert(0x00, 0x00)\n    tag_27:\n      pop\n      tag_28\n      tag_29\n      jump\t// in\n    tag_28:\n      mload(0x40)\n      tag_30\n      swap2\n      swap1\n      tag_31\n      jump\t// in\n    tag_30:\n      mload(0x40)\n      dup1\n      swap2\n      sub\n      swap1\n      return\n        /* \"Lottery/lottery.sol\":478:665  function random() public view returns(uint){... */\n    tag_7:\n      callvalue\n      dup1\n      iszero\n      tag_32\n      jumpi\n      revert(0x00, 0x00)\n    tag_32:\n      pop\n      tag_33\n      tag_34\n      jump\t// in\n    tag_33:\n      mload(0x40)\n      tag_35\n      swap2\n      swap1\n      tag_16\n      jump\t// in\n    tag_35:\n      mload(0x40)\n      dup1\n      swap2\n      sub\n      swap1\n      return\n        /* \"Lottery/lottery.sol\":345:474  function getBalance() view public returns(uint){... */\n    tag_14:\n        /* \"Lottery/lottery.sol\":387:391  uint */\n      0x00\n        /* \"Lottery/lottery.sol\":422:429  manager */\n      0x00\n      0x00\n      swap1\n      sload\n      swap1\n      0x0100\n      exp\n      swap1\n      div\n      0xffffffffffffffffffffffffffffffffffffffff\n      and\n        /* \"Lottery/lottery.sol\":410:429  msg.sender==manager */\n      0xffffffffffffffffffffffffffffffffffffffff\n      and\n        /* \"Lottery/lottery.sol\":410:420  msg.sender */\n      caller\n        /* \"Lottery/lottery.sol\":410:429  msg.sender==manager */\n      0xffffffffffffffffffffffffffffffffffffffff\n      and\n      eq\n        /* \"Lottery/lottery.sol\":402:430  require(msg.sender==manager) */\n      tag_37\n      jumpi\n      revert(0x00, 0x00)\n    tag_37:\n        /* \"Lottery/lottery.sol\":447:468  address(this).balance */\n      selfbalance\n        /* \"Lottery/lottery.sol\":440:468  return address(this).balance */\n      swap1\n      pop\n        /* \"Lottery/lottery.sol\":345:474  function getBalance() view public returns(uint){... */\n      swap1\n      jump\t// out\n        /* \"Lottery/lottery.sol\":669:979  function selectWinner() public {... */\n    tag_19:\n        /* \"Lottery/lottery.sol\":726:733  manager */\n      0x00\n      0x00\n      swap1\n      sload\n      swap1\n      0x0100\n      exp\n      swap1\n      div\n      0xffffffffffffffffffffffffffffffffffffffff\n      and\n        /* \"Lottery/lottery.sol\":714:733  msg.sender==manager */\n      0xffffffffffffffffffffffffffffffffffffffff\n      and\n        /* \"Lottery/lottery.sol\":714:724  msg.sender */\n      caller\n        /* \"Lottery/lottery.sol\":714:733  msg.sender==manager */\n      0xffffffffffffffffffffffffffffffffffffffff\n      and\n      eq\n        /* \"Lottery/lottery.sol\":706:734  require(msg.sender==manager) */\n      tag_39\n      jumpi\n      revert(0x00, 0x00)\n    tag_39:\n        /* \"Lottery/lottery.sol\":769:770  3 */\n      0x03\n        /* \"Lottery/lottery.sol\":748:760  participants */\n      0x01\n        /* \"Lottery/lottery.sol\":748:767  participants.length */\n      dup1\n      sload\n      swap1\n      pop\n        /* \"Lottery/lottery.sol\":748:770  participants.length>=3 */\n      lt\n      iszero\n        /* \"Lottery/lottery.sol\":740:771  require(participants.length>=3) */\n      tag_40\n      jumpi\n      revert(0x00, 0x00)\n    tag_40:\n        /* \"Lottery/lottery.sol\":777:783  uint r */\n      0x00\n        /* \"Lottery/lottery.sol\":784:792  random() */\n      tag_41\n        /* \"Lottery/lottery.sol\":784:790  random */\n      tag_34\n        /* \"Lottery/lottery.sol\":784:792  random() */\n      jump\t// in\n    tag_41:\n        /* \"Lottery/lottery.sol\":777:792  uint r=random() */\n      swap1\n      pop\n        /* \"Lottery/lottery.sol\":798:820  address payable winner */\n      0x00\n        /* \"Lottery/lottery.sol\":826:836  uint index */\n      0x00\n        /* \"Lottery/lottery.sol\":842:854  participants */\n      0x01\n        /* \"Lottery/lottery.sol\":842:861  participants.length */\n      dup1\n      sload\n      swap1\n      pop\n        /* \"Lottery/lottery.sol\":838:839  r */\n      dup4\n        /* \"Lottery/lottery.sol\":838:861  r % participants.length */\n      tag_42\n      swap2\n      swap1\n      tag_43\n      jump\t// in\n    tag_42:\n        /* \"Lottery/lottery.sol\":826:861  uint index= r % participants.length */\n      swap1\n      pop\n        /* \"Lottery/lottery.sol\":874:886  participants */\n      0x01\n        /* \"Lottery/lottery.sol\":887:892  index */\n      dup2\n        /* \"Lottery/lottery.sol\":874:893  participants[index] */\n      dup2\n      sload\n      dup2\n      lt\n      tag_44\n      jumpi\n      tag_45\n      tag_46\n      jump\t// in\n    tag_45:\n    tag_44:\n      swap1\n      0x00\n      mstore\n      keccak256(0x00, 0x20)\n      add\n      0x00\n      swap1\n      sload\n      swap1\n      0x0100\n      exp\n      swap1\n      div\n      0xffffffffffffffffffffffffffffffffffffffff\n      and\n        /* \"Lottery/lottery.sol\":867:893  winner=participants[index] */\n      swap2\n      pop\n        /* \"Lottery/lottery.sol\":899:905  winner */\n      dup2\n        /* \"Lottery/lottery.sol\":899:914  winner.transfer */\n      0xffffffffffffffffffffffffffffffffffffffff\n      and\n        /* \"Lottery/lottery.sol\":899:928  winner.transfer(getBalance()) */\n      0x08fc\n        /* \"Lottery/lottery.sol\":915:927  getBalance() */\n      tag_48\n        /* \"Lottery/lottery.sol\":915:925  getBalance */\n      tag_14\n        /* \"Lottery/lottery.sol\":915:927  getBalance() */\n      jump\t// in\n    tag_48:\n        /* \"Lottery/lottery.sol\":899:928  winner.transfer(getBalance()) */\n      swap1\n      dup2\n      iszero\n      mul\n      swap1\n      mload(0x40)\n      0x00\n      mload(0x40)\n      dup1\n      dup4\n      sub\n      dup2\n      dup6\n      dup9\n      dup9\n      call\n      swap4\n      pop\n      pop\n      pop\n      pop\n      iszero\n      dup1\n      iszero\n      tag_50\n      jumpi\n      returndatacopy(0x00, 0x00, returndatasize)\n      revert(0x00, returndatasize)\n    tag_50:\n      pop\n        /* \"Lottery/lottery.sol\":971:972  0 */\n      0x00\n        /* \"Lottery/lottery.sol\":949:973  new address payable[](0) */\n      0xffffffffffffffff\n      dup2\n      gt\n      iszero\n      tag_51\n      jumpi\n      tag_52\n      tag_53\n      jump\t// in\n    tag_52:\n    tag_51:\n      mload(0x40)\n      swap1\n      dup1\n      dup3\n      mstore\n      dup1\n      0x20\n      mul\n      0x20\n      add\n      dup3\n      add\n      0x40\n      mstore\n      dup1\n      iszero\n      tag_54\n      jumpi\n      dup2\n      0x20\n      add\n      0x20\n      dup3\n      mul\n      dup1\n      calldatasize\n      dup4\n      calldatacopy\n      dup1\n      dup3\n      add\n      swap2\n      pop\n      pop\n      swap1\n      pop\n    tag_54:\n      pop\n        /* \"Lottery/lottery.sol\":934:946  participants */\n      0x01\n        /* \"Lottery/lottery.sol\":934:973  participants = new address payable[](0) */\n      swap1\n      dup1\n      mload\n      swap1\n      0x20\n      add\n      swap1\n      tag_55\n      swap3\n      swap2\n      swap1\n      tag_56\n      jump\t// in\n    tag_55:\n      pop\n        /* \"Lottery/lottery.sol\":700:979  {... */\n      pop\n      pop\n      pop\n        /* \"Lottery/lottery.sol\":669:979  function selectWinner() public {... */\n      jump\t// out\n        /* \"Lottery/lottery.sol\":121:158  address payable[] public participants */\n    tag_24:\n      0x01\n      dup2\n      dup2\n      sload\n      dup2\n      lt\n      tag_57\n      jumpi\n      0x00\n      dup1\n      revert\n    tag_57:\n      swap1\n      0x00\n      mstore\n      keccak256(0x00, 0x20)\n      add\n      0x00\n      swap2\n      pop\n      sload\n      swap1\n      0x0100\n      exp\n      swap1\n      div\n      0xffffffffffffffffffffffffffffffffffffffff\n      and\n      dup2\n      jump\t// out\n        /* \"Lottery/lottery.sol\":93:115  address public manager */\n    tag_29:\n      0x00\n      0x00\n      swap1\n      sload\n      swap1\n      0x0100\n      exp\n      swap1\n      div\n      0xffffffffffffffffffffffffffffffffffffffff\n      and\n      dup2\n      jump\t// out\n        /* \"Lottery/lottery.sol\":478:665  function random() public view returns(uint){... */\n    tag_34:\n        /* \"Lottery/lottery.sol\":516:520  uint */\n      0x00\n        /* \"Lottery/lottery.sol\":547:554  manager */\n      0x00\n      0x00\n      swap1\n      sload\n      swap1\n      0x0100\n      exp\n      swap1\n      div\n      0xffffffffffffffffffffffffffffffffffffffff\n      and\n        /* \"Lottery/lottery.sol\":535:554  msg.sender==manager */\n      0xffffffffffffffffffffffffffffffffffffffff\n      and\n        /* \"Lottery/lottery.sol\":535:545  msg.sender */\n      caller\n        /* \"Lottery/lottery.sol\":535:554  msg.sender==manager */\n      0xffffffffffffffffffffffffffffffffffffffff\n      and\n      eq\n        /* \"Lottery/lottery.sol\":527:555  require(msg.sender==manager) */\n      tag_60\n      jumpi\n      revert(0x00, 0x00)\n    tag_60:\n        /* \"Lottery/lottery.sol\":604:620  block.prevrandao */\n      prevrandao\n        /* \"Lottery/lottery.sol\":621:636  block.timestamp */\n      timestamp\n        /* \"Lottery/lottery.sol\":637:649  participants */\n      0x01\n        /* \"Lottery/lottery.sol\":637:656  participants.length */\n      dup1\n      sload\n      swap1\n      pop\n        /* \"Lottery/lottery.sol\":587:657  abi.encodePacked(block.prevrandao,block.timestamp,participants.length) */\n      add(0x20, mload(0x40))\n      tag_61\n      swap4\n      swap3\n      swap2\n      swap1\n      tag_62\n      jump\t// in\n    tag_61:\n      mload(0x40)\n      0x20\n      dup2\n      dup4\n      sub\n      sub\n      dup2\n      mstore\n      swap1\n      0x40\n      mstore\n        /* \"Lottery/lottery.sol\":577:658  keccak256(abi.encodePacked(block.prevrandao,block.timestamp,participants.length)) */\n      dup1\n      mload\n      swap1\n      0x20\n      add\n      keccak256\n        /* \"Lottery/lottery.sol\":572:659  uint(keccak256(abi.encodePacked(block.prevrandao,block.timestamp,participants.length))) */\n      0x00\n      shr\n        /* \"Lottery/lottery.sol\":565:659  return uint(keccak256(abi.encodePacked(block.prevrandao,block.timestamp,participants.length))) */\n      swap1\n      pop\n        /* \"Lottery/lottery.sol\":478:665  function random() public view returns(uint){... */\n      swap1\n      jump\t// out\n    tag_56:\n      dup3\n      dup1\n      sload\n      dup3\n      dup3\n      sstore\n      swap1\n      0x00\n      mstore\n      keccak256(0x00, 0x20)\n      swap1\n      dup2\n      add\n      swap3\n      dup3\n      iszero\n      tag_63\n      jumpi\n      swap2\n      0x20\n      mul\n      dup3\n      add\n    tag_64:\n      dup3\n      dup2\n      gt\n      iszero\n      tag_65\n      jumpi\n      dup3\n      mload\n      dup3\n      exp(0x0100, 0x00)\n      dup2\n      sload\n      dup2\n      0xffffffffffffffffffffffffffffffffffffffff\n      mul\n      not\n      and\n      swap1\n      dup4\n      0xffffffffffffffffffffffffffffffffffffffff\n      and\n      mul\n      or\n      swap1\n      sstore\n      pop\n      swap2\n      0x20\n      add\n      swap2\n      swap1\n      0x01\n      add\n      swap1\n      jump(tag_64)\n    tag_65:\n    tag_63:\n      pop\n      swap1\n      pop\n      tag_66\n      swap2\n      swap1\n      tag_67\n      jump\t// in\n    tag_66:\n      pop\n      swap1\n      jump\t// out\n    tag_67:\n    tag_68:\n      dup1\n      dup3\n      gt\n      iszero\n      tag_69\n      jumpi\n      0x00\n      dup2\n      0x00\n      swap1\n      sstore\n      pop\n      0x01\n      add\n      jump(tag_68)\n    tag_69:\n      pop\n      swap1\n      jump\t// out\n        /* \"#utility.yul\":7:84   */\n    tag_70:\n        /* \"#utility.yul\":44:51   */\n      0x00\n        /* \"#utility.yul\":73:78   */\n      dup2\n        /* \"#utility.yul\":62:78   */\n      swap1\n      pop\n        /* \"#utility.yul\":7:84   */\n      swap2\n      swap1\n      pop\n      jump\t// out\n        /* \"#utility.yul\":90:208   */\n    tag_71:\n        /* \"#utility.yul\":177:201   */\n      tag_88\n        /* \"#utility.yul\":195:200   */\n      dup2\n        /* \"#utility.yul\":177:201   */\n      tag_70\n      jump\t// in\n    tag_88:\n        /* \"#utility.yul\":172:175   */\n      dup3\n        /* \"#utility.yul\":165:202   */\n      mstore\n        /* \"#utility.yul\":90:208   */\n      pop\n      pop\n      jump\t// out\n        /* \"#utility.yul\":214:436   */\n    tag_16:\n        /* \"#utility.yul\":307:311   */\n      0x00\n        /* \"#utility.yul\":345:347   */\n      0x20\n        /* \"#utility.yul\":334:343   */\n      dup3\n        /* \"#utility.yul\":330:348   */\n      add\n        /* \"#utility.yul\":322:348   */\n      swap1\n      pop\n        /* \"#utility.yul\":358:429   */\n      tag_90\n        /* \"#utility.yul\":426:427   */\n      0x00\n        /* \"#utility.yul\":415:424   */\n      dup4\n        /* \"#utility.yul\":411:428   */\n      add\n        /* \"#utility.yul\":402:408   */\n      dup5\n        /* \"#utility.yul\":358:429   */\n      tag_71\n      jump\t// in\n    tag_90:\n        /* \"#utility.yul\":214:436   */\n      swap3\n      swap2\n      pop\n      pop\n      jump\t// out\n        /* \"#utility.yul\":523:640   */\n    tag_73:\n        /* \"#utility.yul\":632:633   */\n      0x00\n        /* \"#utility.yul\":629:630   */\n      0x00\n        /* \"#utility.yul\":622:634   */\n      revert\n        /* \"#utility.yul\":769:891   */\n    tag_75:\n        /* \"#utility.yul\":842:866   */\n      tag_95\n        /* \"#utility.yul\":860:865   */\n      dup2\n        /* \"#utility.yul\":842:866   */\n      tag_70\n      jump\t// in\n    tag_95:\n        /* \"#utility.yul\":835:840   */\n      dup2\n        /* \"#utility.yul\":832:867   */\n      eq\n        /* \"#utility.yul\":822:885   */\n      tag_96\n      jumpi\n        /* \"#utility.yul\":881:882   */\n      0x00\n        /* \"#utility.yul\":878:879   */\n      0x00\n        /* \"#utility.yul\":871:883   */\n      revert\n        /* \"#utility.yul\":822:885   */\n    tag_96:\n        /* \"#utility.yul\":769:891   */\n      pop\n      jump\t// out\n        /* \"#utility.yul\":897:1036   */\n    tag_76:\n        /* \"#utility.yul\":943:948   */\n      0x00\n        /* \"#utility.yul\":981:987   */\n      dup2\n        /* \"#utility.yul\":968:988   */\n      calldataload\n        /* \"#utility.yul\":959:988   */\n      swap1\n      pop\n        /* \"#utility.yul\":997:1030   */\n      tag_98\n        /* \"#utility.yul\":1024:1029   */\n      dup2\n        /* \"#utility.yul\":997:1030   */\n      tag_75\n      jump\t// in\n    tag_98:\n        /* \"#utility.yul\":897:1036   */\n      swap3\n      swap2\n      pop\n      pop\n      jump\t// out\n        /* \"#utility.yul\":1042:1371   */\n    tag_23:\n        /* \"#utility.yul\":1101:1107   */\n      0x00\n        /* \"#utility.yul\":1150:1152   */\n      0x20\n        /* \"#utility.yul\":1138:1147   */\n      dup3\n        /* \"#utility.yul\":1129:1136   */\n      dup5\n        /* \"#utility.yul\":1125:1148   */\n      sub\n        /* \"#utility.yul\":1121:1153   */\n      slt\n        /* \"#utility.yul\":1118:1237   */\n      iszero\n      tag_100\n      jumpi\n        /* \"#utility.yul\":1156:1235   */\n      tag_101\n      tag_73\n      jump\t// in\n    tag_101:\n        /* \"#utility.yul\":1118:1237   */\n    tag_100:\n        /* \"#utility.yul\":1276:1277   */\n      0x00\n        /* \"#utility.yul\":1301:1354   */\n      tag_102\n        /* \"#utility.yul\":1346:1353   */\n      dup5\n        /* \"#utility.yul\":1337:1343   */\n      dup3\n        /* \"#utility.yul\":1326:1335   */\n      dup6\n        /* \"#utility.yul\":1322:1344   */\n      add\n        /* \"#utility.yul\":1301:1354   */\n      tag_76\n      jump\t// in\n    tag_102:\n        /* \"#utility.yul\":1291:1354   */\n      swap2\n      pop\n        /* \"#utility.yul\":1247:1364   */\n      pop\n        /* \"#utility.yul\":1042:1371   */\n      swap3\n      swap2\n      pop\n      pop\n      jump\t// out\n        /* \"#utility.yul\":1377:1503   */\n    tag_77:\n        /* \"#utility.yul\":1414:1421   */\n      0x00\n        /* \"#utility.yul\":1454:1496   */\n      0xffffffffffffffffffffffffffffffffffffffff\n        /* \"#utility.yul\":1447:1452   */\n      dup3\n        /* \"#utility.yul\":1443:1497   */\n      and\n        /* \"#utility.yul\":1432:1497   */\n      swap1\n      pop\n        /* \"#utility.yul\":1377:1503   */\n      swap2\n      swap1\n      pop\n      jump\t// out\n        /* \"#utility.yul\":1509:1613   */\n    tag_78:\n        /* \"#utility.yul\":1554:1561   */\n      0x00\n        /* \"#utility.yul\":1583:1607   */\n      tag_105\n        /* \"#utility.yul\":1601:1606   */\n      dup3\n        /* \"#utility.yul\":1583:1607   */\n      tag_77\n      jump\t// in\n    tag_105:\n        /* \"#utility.yul\":1572:1607   */\n      swap1\n      pop\n        /* \"#utility.yul\":1509:1613   */\n      swap2\n      swap1\n      pop\n      jump\t// out\n        /* \"#utility.yul\":1619:1761   */\n    tag_79:\n        /* \"#utility.yul\":1722:1754   */\n      tag_107\n        /* \"#utility.yul\":1748:1753   */\n      dup2\n        /* \"#utility.yul\":1722:1754   */\n      tag_78\n      jump\t// in\n    tag_107:\n        /* \"#utility.yul\":1717:1720   */\n      dup3\n        /* \"#utility.yul\":1710:1755   */\n      mstore\n        /* \"#utility.yul\":1619:1761   */\n      pop\n      pop\n      jump\t// out\n        /* \"#utility.yul\":1767:2021   */\n    tag_26:\n        /* \"#utility.yul\":1876:1880   */\n      0x00\n        /* \"#utility.yul\":1914:1916   */\n      0x20\n        /* \"#utility.yul\":1903:1912   */\n      dup3\n        /* \"#utility.yul\":1899:1917   */\n      add\n        /* \"#utility.yul\":1891:1917   */\n      swap1\n      pop\n        /* \"#utility.yul\":1927:2014   */\n      tag_109\n        /* \"#utility.yul\":2011:2012   */\n      0x00\n        /* \"#utility.yul\":2000:2009   */\n      dup4\n        /* \"#utility.yul\":1996:2013   */\n      add\n        /* \"#utility.yul\":1987:1993   */\n      dup5\n        /* \"#utility.yul\":1927:2014   */\n      tag_79\n      jump\t// in\n    tag_109:\n        /* \"#utility.yul\":1767:2021   */\n      swap3\n      swap2\n      pop\n      pop\n      jump\t// out\n        /* \"#utility.yul\":2027:2123   */\n    tag_80:\n        /* \"#utility.yul\":2064:2071   */\n      0x00\n        /* \"#utility.yul\":2093:2117   */\n      tag_111\n        /* \"#utility.yul\":2111:2116   */\n      dup3\n        /* \"#utility.yul\":2093:2117   */\n      tag_77\n      jump\t// in\n    tag_111:\n        /* \"#utility.yul\":2082:2117   */\n      swap1\n      pop\n        /* \"#utility.yul\":2027:2123   */\n      swap2\n      swap1\n      pop\n      jump\t// out\n        /* \"#utility.yul\":2129:2247   */\n    tag_81:\n        /* \"#utility.yul\":2216:2240   */\n      tag_113\n        /* \"#utility.yul\":2234:2239   */\n      dup2\n        /* \"#utility.yul\":2216:2240   */\n      tag_80\n      jump\t// in\n    tag_113:\n        /* \"#utility.yul\":2211:2214   */\n      dup3\n        /* \"#utility.yul\":2204:2241   */\n      mstore\n        /* \"#utility.yul\":2129:2247   */\n      pop\n      pop\n      jump\t// out\n        /* \"#utility.yul\":2253:2475   */\n    tag_31:\n        /* \"#utility.yul\":2346:2350   */\n      0x00\n        /* \"#utility.yul\":2384:2386   */\n      0x20\n        /* \"#utility.yul\":2373:2382   */\n      dup3\n        /* \"#utility.yul\":2369:2387   */\n      add\n        /* \"#utility.yul\":2361:2387   */\n      swap1\n      pop\n        /* \"#utility.yul\":2397:2468   */\n      tag_115\n        /* \"#utility.yul\":2465:2466   */\n      0x00\n        /* \"#utility.yul\":2454:2463   */\n      dup4\n        /* \"#utility.yul\":2450:2467   */\n      add\n        /* \"#utility.yul\":2441:2447   */\n      dup5\n        /* \"#utility.yul\":2397:2468   */\n      tag_81\n      jump\t// in\n    tag_115:\n        /* \"#utility.yul\":2253:2475   */\n      swap3\n      swap2\n      pop\n      pop\n      jump\t// out\n        /* \"#utility.yul\":2481:2661   */\n    tag_82:\n        /* \"#utility.yul\":2529:2606   */\n      0x4e487b7100000000000000000000000000000000000000000000000000000000\n        /* \"#utility.yul\":2526:2527   */\n      0x00\n        /* \"#utility.yul\":2519:2607   */\n      mstore\n        /* \"#utility.yul\":2626:2630   */\n      0x12\n        /* \"#utility.yul\":2623:2624   */\n      0x04\n        /* \"#utility.yul\":2616:2631   */\n      mstore\n        /* \"#utility.yul\":2650:2654   */\n      0x24\n        /* \"#utility.yul\":2647:2648   */\n      0x00\n        /* \"#utility.yul\":2640:2655   */\n      revert\n        /* \"#utility.yul\":2667:2843   */\n    tag_43:\n        /* \"#utility.yul\":2699:2700   */\n      0x00\n        /* \"#utility.yul\":2716:2736   */\n      tag_118\n        /* \"#utility.yul\":2734:2735   */\n      dup3\n        /* \"#utility.yul\":2716:2736   */\n      tag_70\n      jump\t// in\n    tag_118:\n        /* \"#utility.yul\":2711:2736   */\n      swap2\n      pop\n        /* \"#utility.yul\":2750:2770   */\n      tag_119\n        /* \"#utility.yul\":2768:2769   */\n      dup4\n        /* \"#utility.yul\":2750:2770   */\n      tag_70\n      jump\t// in\n    tag_119:\n        /* \"#utility.yul\":2745:2770   */\n      swap3\n      pop\n        /* \"#utility.yul\":2789:2790   */\n      dup3\n        /* \"#utility.yul\":2779:2814   */\n      tag_120\n      jumpi\n        /* \"#utility.yul\":2794:2812   */\n      tag_121\n      tag_82\n      jump\t// in\n    tag_121:\n        /* \"#utility.yul\":2779:2814   */\n    tag_120:\n        /* \"#utility.yul\":2835:2836   */\n      dup3\n        /* \"#utility.yul\":2832:2833   */\n      dup3\n        /* \"#utility.yul\":2828:2837   */\n      mod\n        /* \"#utility.yul\":2823:2837   */\n      swap1\n      pop\n        /* \"#utility.yul\":2667:2843   */\n      swap3\n      swap2\n      pop\n      pop\n      jump\t// out\n        /* \"#utility.yul\":2849:3029   */\n    tag_46:\n        /* \"#utility.yul\":2897:2974   */\n      0x4e487b7100000000000000000000000000000000000000000000000000000000\n        /* \"#utility.yul\":2894:2895   */\n      0x00\n        /* \"#utility.yul\":2887:2975   */\n      mstore\n        /* \"#utility.yul\":2994:2998   */\n      0x32\n        /* \"#utility.yul\":2991:2992   */\n      0x04\n        /* \"#utility.yul\":2984:2999   */\n      mstore\n        /* \"#utility.yul\":3018:3022   */\n      0x24\n        /* \"#utility.yul\":3015:3016   */\n      0x00\n        /* \"#utility.yul\":3008:3023   */\n      revert\n        /* \"#utility.yul\":3035:3215   */\n    tag_53:\n        /* \"#utility.yul\":3083:3160   */\n      0x4e487b7100000000000000000000000000000000000000000000000000000000\n        /* \"#utility.yul\":3080:3081   */\n      0x00\n        /* \"#utility.yul\":3073:3161   */\n      mstore\n        /* \"#utility.yul\":3180:3184   */\n      0x41\n        /* \"#utility.yul\":3177:3178   */\n      0x04\n        /* \"#utility.yul\":3170:3185   */\n      mstore\n        /* \"#utility.yul\":3204:3208   */\n      0x24\n        /* \"#utility.yul\":3201:3202   */\n      0x00\n        /* \"#utility.yul\":3194:3209   */\n      revert\n        /* \"#utility.yul\":3221:3300   */\n    tag_83:\n        /* \"#utility.yul\":3260:3267   */\n      0x00\n        /* \"#utility.yul\":3289:3294   */\n      dup2\n        /* \"#utility.yul\":3278:3294   */\n      swap1\n      pop\n        /* \"#utility.yul\":3221:3300   */\n      swap2\n      swap1\n      pop\n      jump\t// out\n        /* \"#utility.yul\":3306:3463   */\n    tag_84:\n        /* \"#utility.yul\":3411:3456   */\n      tag_126\n        /* \"#utility.yul\":3431:3455   */\n      tag_127\n        /* \"#utility.yul\":3449:3454   */\n      dup3\n        /* \"#utility.yul\":3431:3455   */\n      tag_70\n      jump\t// in\n    tag_127:\n        /* \"#utility.yul\":3411:3456   */\n      tag_83\n      jump\t// in\n    tag_126:\n        /* \"#utility.yul\":3406:3409   */\n      dup3\n        /* \"#utility.yul\":3399:3457   */\n      mstore\n        /* \"#utility.yul\":3306:3463   */\n      pop\n      pop\n      jump\t// out\n        /* \"#utility.yul\":3469:4007   */\n    tag_62:\n        /* \"#utility.yul\":3637:3640   */\n      0x00\n        /* \"#utility.yul\":3652:3727   */\n      tag_129\n        /* \"#utility.yul\":3723:3726   */\n      dup3\n        /* \"#utility.yul\":3714:3720   */\n      dup7\n        /* \"#utility.yul\":3652:3727   */\n      tag_84\n      jump\t// in\n    tag_129:\n        /* \"#utility.yul\":3752:3754   */\n      0x20\n        /* \"#utility.yul\":3747:3750   */\n      dup3\n        /* \"#utility.yul\":3743:3755   */\n      add\n        /* \"#utility.yul\":3736:3755   */\n      swap2\n      pop\n        /* \"#utility.yul\":3765:3840   */\n      tag_130\n        /* \"#utility.yul\":3836:3839   */\n      dup3\n        /* \"#utility.yul\":3827:3833   */\n      dup6\n        /* \"#utility.yul\":3765:3840   */\n      tag_84\n      jump\t// in\n    tag_130:\n        /* \"#utility.yul\":3865:3867   */\n      0x20\n        /* \"#utility.yul\":3860:3863   */\n      dup3\n        /* \"#utility.yul\":3856:3868   */\n      add\n        /* \"#utility.yul\":3849:3868   */\n      swap2\n      pop\n        /* \"#utility.yul\":3878:3953   */\n      tag_131\n        /* \"#utility.yul\":3949:3952   */\n      dup3\n        /* \"#utility.yul\":3940:3946   */\n      dup5\n        /* \"#utility.yul\":3878:3953   */\n      tag_84\n      jump\t// in\n    tag_131:\n        /* \"#utility.yul\":3978:3980   */\n      0x20\n        /* \"#utility.yul\":3973:3976   */\n      dup3\n        /* \"#utility.yul\":3969:3981   */\n      add\n        /* \"#utility.yul\":3962:3981   */\n      swap2\n      pop\n        /* \"#utility.yul\":3998:4001   */\n      dup2\n        /* \"#utility.yul\":3991:4001   */\n      swap1\n      pop\n        /* \"#utility.yul\":3469:4007   */\n      swap5\n      swap4\n      pop\n      pop\n      pop\n      pop\n      jump\t// out\n\n    auxdata: 0xa26469706673582212200dd59043cb36f18571eb36d74210d430e5cc1bb29b15a9ad1f07e91994b5d01e64736f6c634300081b0033\n}\n",
				"bytecode": {
					"linkReferences": {},
					"object": "6080604052348015600e575f5ffd5b50335f5f6101000a81548173ffffffffffffffffffffffffffffffffffffffff021916908373ffffffffffffffffffffffffffffffffffffffff1602179055506107628061005b5f395ff3fe60806040526004361061004d575f3560e01c806312065fe0146100ca57806333a99e04146100f457806335c1d3491461010a578063481c6a75146101465780635ec01e4d14610170576100c6565b366100c657670de0b6b3a76400003414610065575f5ffd5b600133908060018154018082558091505060019003905f5260205f20015f9091909190916101000a81548173ffffffffffffffffffffffffffffffffffffffff021916908373ffffffffffffffffffffffffffffffffffffffff1602179055005b5f5ffd5b3480156100d5575f5ffd5b506100de61019a565b6040516100eb9190610516565b60405180910390f35b3480156100ff575f5ffd5b506101086101f8565b005b348015610115575f5ffd5b50610130600480360381019061012b919061055d565b61036e565b60405161013d91906105c7565b60405180910390f35b348015610151575f5ffd5b5061015a6103a9565b6040516101679190610600565b60405180910390f35b34801561017b575f5ffd5b506101846103cd565b6040516101919190610516565b60405180910390f35b5f5f5f9054906101000a900473ffffffffffffffffffffffffffffffffffffffff1673ffffffffffffffffffffffffffffffffffffffff163373ffffffffffffffffffffffffffffffffffffffff16146101f2575f5ffd5b47905090565b5f5f9054906101000a900473ffffffffffffffffffffffffffffffffffffffff1673ffffffffffffffffffffffffffffffffffffffff163373ffffffffffffffffffffffffffffffffffffffff161461024f575f5ffd5b60036001805490501015610261575f5ffd5b5f61026a6103cd565b90505f5f6001805490508361027f9190610646565b90506001818154811061029557610294610676565b5b905f5260205f20015f9054906101000a900473ffffffffffffffffffffffffffffffffffffffff1691508173ffffffffffffffffffffffffffffffffffffffff166108fc6102e161019a565b90811502906040515f60405180830381858888f19350505050158015610309573d5f5f3e3d5ffd5b505f67ffffffffffffffff811115610324576103236106a3565b5b6040519080825280602002602001820160405280156103525781602001602082028036833780820191505090505b506001908051906020019061036892919061045c565b50505050565b6001818154811061037d575f80fd5b905f5260205f20015f915054906101000a900473ffffffffffffffffffffffffffffffffffffffff1681565b5f5f9054906101000a900473ffffffffffffffffffffffffffffffffffffffff1681565b5f5f5f9054906101000a900473ffffffffffffffffffffffffffffffffffffffff1673ffffffffffffffffffffffffffffffffffffffff163373ffffffffffffffffffffffffffffffffffffffff1614610425575f5ffd5b444260018054905060405160200161043f939291906106f0565b604051602081830303815290604052805190602001205f1c905090565b828054828255905f5260205f209081019282156104d2579160200282015b828111156104d1578251825f6101000a81548173ffffffffffffffffffffffffffffffffffffffff021916908373ffffffffffffffffffffffffffffffffffffffff1602179055509160200191906001019061047a565b5b5090506104df91906104e3565b5090565b5b808211156104fa575f815f9055506001016104e4565b5090565b5f819050919050565b610510816104fe565b82525050565b5f6020820190506105295f830184610507565b92915050565b5f5ffd5b61053c816104fe565b8114610546575f5ffd5b50565b5f8135905061055781610533565b92915050565b5f602082840312156105725761057161052f565b5b5f61057f84828501610549565b91505092915050565b5f73ffffffffffffffffffffffffffffffffffffffff82169050919050565b5f6105b182610588565b9050919050565b6105c1816105a7565b82525050565b5f6020820190506105da5f8301846105b8565b92915050565b5f6105ea82610588565b9050919050565b6105fa816105e0565b82525050565b5f6020820190506106135f8301846105f1565b92915050565b7f4e487b71000000000000000000000000000000000000000000000000000000005f52601260045260245ffd5b5f610650826104fe565b915061065b836104fe565b92508261066b5761066a610619565b5b828206905092915050565b7f4e487b71000000000000000000000000000000000000000000000000000000005f52603260045260245ffd5b7f4e487b71000000000000000000000000000000000000000000000000000000005f52604160045260245ffd5b5f819050919050565b6106ea6106e5826104fe565b6106d0565b82525050565b5f6106fb82866106d9565b60208201915061070b82856106d9565b60208201915061071b82846106d9565b60208201915081905094935050505056fea26469706673582212200dd59043cb36f18571eb36d74210d430e5cc1bb29b15a9ad1f07e91994b5d01e64736f6c634300081b0033",
					"opcodes": "PUSH1 0x80 PUSH1 0x40 MSTORE CALLVALUE DUP1 ISZERO PUSH1 0xE JUMPI PUSH0 PUSH0 REVERT JUMPDEST POP CALLER PUSH0 PUSH0 PUSH2 0x100 EXP DUP2 SLOAD DUP2 PUSH20 0xFFFFFFFFFFFFFFFFFFFFFFFFFFFFFFFFFFFFFFFF MUL NOT AND SWAP1 DUP4 PUSH20 0xFFFFFFFFFFFFFFFFFFFFFFFFFFFFFFFFFFFFFFFF AND MUL OR SWAP1 SSTORE POP PUSH2 0x762 DUP1 PUSH2 0x5B PUSH0 CODECOPY PUSH0 RETURN INVALID PUSH1 0x80 PUSH1 0x40 MSTORE PUSH1 0x4 CALLDATASIZE LT PUSH2 0x4D JUMPI PUSH0 CALLDATALOAD PUSH1 0xE0 SHR DUP1 PUSH4 0x12065FE0 EQ PUSH2 0xCA JUMPI DUP1 PUSH4 0x33A99E04 EQ PUSH2 0xF4 JUMPI DUP1 PUSH4 0x35C1D349 EQ PUSH2 0x10A JUMPI DUP1 PUSH4 0x481C6A75 EQ PUSH2 0x146 JUMPI DUP1 PUSH4 0x5EC01E4D EQ PUSH2 0x170 JUMPI PUSH2 0xC6 JUMP JUMPDEST CALLDATASIZE PUSH2 0xC6 JUMPI PUSH8 0xDE0B6B3A7640000 CALLVALUE EQ PUSH2 0x65 JUMPI PUSH0 PUSH0 REVERT JUMPDEST PUSH1 0x1 CALLER SWAP1 DUP1 PUSH1 0x1 DUP2 SLOAD ADD DUP1 DUP3 SSTORE DUP1 SWAP2 POP POP PUSH1 0x1 SWAP1 SUB SWAP1 PUSH0 MSTORE PUSH1 0x20 PUSH0 KECCAK256 ADD PUSH0 SWAP1 SWAP2 SWAP1 SWAP2 SWAP1 SWAP2 PUSH2 0x100 EXP DUP2 SLOAD DUP2 PUSH20 0xFFFFFFFFFFFFFFFFFFFFFFFFFFFFFFFFFFFFFFFF MUL NOT AND SWAP1 DUP4 PUSH20 0xFFFFFFFFFFFFFFFFFFFFFFFFFFFFFFFFFFFFFFFF AND MUL OR SWAP1 SSTORE STOP JUMPDEST PUSH0 PUSH0 REVERT JUMPDEST CALLVALUE DUP1 ISZERO PUSH2 0xD5 JUMPI PUSH0 PUSH0 REVERT JUMPDEST POP PUSH2 0xDE PUSH2 0x19A JUMP JUMPDEST PUSH1 0x40 MLOAD PUSH2 0xEB SWAP2 SWAP1 PUSH2 0x516 JUMP JUMPDEST PUSH1 0x40 MLOAD DUP1 SWAP2 SUB SWAP1 RETURN JUMPDEST CALLVALUE DUP1 ISZERO PUSH2 0xFF JUMPI PUSH0 PUSH0 REVERT JUMPDEST POP PUSH2 0x108 PUSH2 0x1F8 JUMP JUMPDEST STOP JUMPDEST CALLVALUE DUP1 ISZERO PUSH2 0x115 JUMPI PUSH0 PUSH0 REVERT JUMPDEST POP PUSH2 0x130 PUSH1 0x4 DUP1 CALLDATASIZE SUB DUP2 ADD SWAP1 PUSH2 0x12B SWAP2 SWAP1 PUSH2 0x55D JUMP JUMPDEST PUSH2 0x36E JUMP JUMPDEST PUSH1 0x40 MLOAD PUSH2 0x13D SWAP2 SWAP1 PUSH2 0x5C7 JUMP JUMPDEST PUSH1 0x40 MLOAD DUP1 SWAP2 SUB SWAP1 RETURN JUMPDEST CALLVALUE DUP1 ISZERO PUSH2 0x151 JUMPI PUSH0 PUSH0 REVERT JUMPDEST POP PUSH2 0x15A PUSH2 0x3A9 JUMP JUMPDEST PUSH1 0x40 MLOAD PUSH2 0x167 SWAP2 SWAP1 PUSH2 0x600 JUMP JUMPDEST PUSH1 0x40 MLOAD DUP1 SWAP2 SUB SWAP1 RETURN JUMPDEST CALLVALUE DUP1 ISZERO PUSH2 0x17B JUMPI PUSH0 PUSH0 REVERT JUMPDEST POP PUSH2 0x184 PUSH2 0x3CD JUMP JUMPDEST PUSH1 0x40 MLOAD PUSH2 0x191 SWAP2 SWAP1 PUSH2 0x516 JUMP JUMPDEST PUSH1 0x40 MLOAD DUP1 SWAP2 SUB SWAP1 RETURN JUMPDEST PUSH0 PUSH0 PUSH0 SWAP1 SLOAD SWAP1 PUSH2 0x100 EXP SWAP1 DIV PUSH20 0xFFFFFFFFFFFFFFFFFFFFFFFFFFFFFFFFFFFFFFFF AND PUSH20 0xFFFFFFFFFFFFFFFFFFFFFFFFFFFFFFFFFFFFFFFF AND CALLER PUSH20 0xFFFFFFFFFFFFFFFFFFFFFFFFFFFFFFFFFFFFFFFF AND EQ PUSH2 0x1F2 JUMPI PUSH0 PUSH0 REVERT JUMPDEST SELFBALANCE SWAP1 POP SWAP1 JUMP JUMPDEST PUSH0 PUSH0 SWAP1 SLOAD SWAP1 PUSH2 0x100 EXP SWAP1 DIV PUSH20 0xFFFFFFFFFFFFFFFFFFFFFFFFFFFFFFFFFFFFFFFF AND PUSH20 0xFFFFFFFFFFFFFFFFFFFFFFFFFFFFFFFFFFFFFFFF AND CALLER PUSH20 0xFFFFFFFFFFFFFFFFFFFFFFFFFFFFFFFFFFFFFFFF AND EQ PUSH2 0x24F JUMPI PUSH0 PUSH0 REVERT JUMPDEST PUSH1 0x3 PUSH1 0x1 DUP1 SLOAD SWAP1 POP LT ISZERO PUSH2 0x261 JUMPI PUSH0 PUSH0 REVERT JUMPDEST PUSH0 PUSH2 0x26A PUSH2 0x3CD JUMP JUMPDEST SWAP1 POP PUSH0 PUSH0 PUSH1 0x1 DUP1 SLOAD SWAP1 POP DUP4 PUSH2 0x27F SWAP2 SWAP1 PUSH2 0x646 JUMP JUMPDEST SWAP1 POP PUSH1 0x1 DUP2 DUP2 SLOAD DUP2 LT PUSH2 0x295 JUMPI PUSH2 0x294 PUSH2 0x676 JUMP JUMPDEST JUMPDEST SWAP1 PUSH0 MSTORE PUSH1 0x20 PUSH0 KECCAK256 ADD PUSH0 SWAP1 SLOAD SWAP1 PUSH2 0x100 EXP SWAP1 DIV PUSH20 0xFFFFFFFFFFFFFFFFFFFFFFFFFFFFFFFFFFFFFFFF AND SWAP2 POP DUP2 PUSH20 0xFFFFFFFFFFFFFFFFFFFFFFFFFFFFFFFFFFFFFFFF AND PUSH2 0x8FC PUSH2 0x2E1 PUSH2 0x19A JUMP JUMPDEST SWAP1 DUP2 ISZERO MUL SWAP1 PUSH1 0x40 MLOAD PUSH0 PUSH1 0x40 MLOAD DUP1 DUP4 SUB DUP2 DUP6 DUP9 DUP9 CALL SWAP4 POP POP POP POP ISZERO DUP1 ISZERO PUSH2 0x309 JUMPI RETURNDATASIZE PUSH0 PUSH0 RETURNDATACOPY RETURNDATASIZE PUSH0 REVERT JUMPDEST POP PUSH0 PUSH8 0xFFFFFFFFFFFFFFFF DUP2 GT ISZERO PUSH2 0x324 JUMPI PUSH2 0x323 PUSH2 0x6A3 JUMP JUMPDEST JUMPDEST PUSH1 0x40 MLOAD SWAP1 DUP1 DUP3 MSTORE DUP1 PUSH1 0x20 MUL PUSH1 0x20 ADD DUP3 ADD PUSH1 0x40 MSTORE DUP1 ISZERO PUSH2 0x352 JUMPI DUP2 PUSH1 0x20 ADD PUSH1 0x20 DUP3 MUL DUP1 CALLDATASIZE DUP4 CALLDATACOPY DUP1 DUP3 ADD SWAP2 POP POP SWAP1 POP JUMPDEST POP PUSH1 0x1 SWAP1 DUP1 MLOAD SWAP1 PUSH1 0x20 ADD SWAP1 PUSH2 0x368 SWAP3 SWAP2 SWAP1 PUSH2 0x45C JUMP JUMPDEST POP POP POP POP JUMP JUMPDEST PUSH1 0x1 DUP2 DUP2 SLOAD DUP2 LT PUSH2 0x37D JUMPI PUSH0 DUP1 REVERT JUMPDEST SWAP1 PUSH0 MSTORE PUSH1 0x20 PUSH0 KECCAK256 ADD PUSH0 SWAP2 POP SLOAD SWAP1 PUSH2 0x100 EXP SWAP1 DIV PUSH20 0xFFFFFFFFFFFFFFFFFFFFFFFFFFFFFFFFFFFFFFFF AND DUP2 JUMP JUMPDEST PUSH0 PUSH0 SWAP1 SLOAD SWAP1 PUSH2 0x100 EXP SWAP1 DIV PUSH20 0xFFFFFFFFFFFFFFFFFFFFFFFFFFFFFFFFFFFFFFFF AND DUP2 JUMP JUMPDEST PUSH0 PUSH0 PUSH0 SWAP1 SLOAD SWAP1 PUSH2 0x100 EXP SWAP1 DIV PUSH20 0xFFFFFFFFFFFFFFFFFFFFFFFFFFFFFFFFFFFFFFFF AND PUSH20 0xFFFFFFFFFFFFFFFFFFFFFFFFFFFFFFFFFFFFFFFF AND CALLER PUSH20 0xFFFFFFFFFFFFFFFFFFFFFFFFFFFFFFFFFFFFFFFF AND EQ PUSH2 0x425 JUMPI PUSH0 PUSH0 REVERT JUMPDEST PREVRANDAO TIMESTAMP PUSH1 0x1 DUP1 SLOAD SWAP1 POP PUSH1 0x40 MLOAD PUSH1 0x20 ADD PUSH2 0x43F SWAP4 SWAP3 SWAP2 SWAP1 PUSH2 0x6F0 JUMP JUMPDEST PUSH1 0x40 MLOAD PUSH1 0x20 DUP2 DUP4 SUB SUB DUP2 MSTORE SWAP1 PUSH1 0x40 MSTORE DUP1 MLOAD SWAP1 PUSH1 0x20 ADD KECCAK256 PUSH0 SHR SWAP1 POP SWAP1 JUMP JUMPDEST DUP3 DUP1 SLOAD DUP3 DUP3 SSTORE SWAP1 PUSH0 MSTORE PUSH1 0x20 PUSH0 KECCAK256 SWAP1 DUP2 ADD SWAP3 DUP3 ISZERO PUSH2 0x4D2 JUMPI SWAP2 PUSH1 0x20 MUL DUP3 ADD JUMPDEST DUP3 DUP2 GT ISZERO PUSH2 0x4D1 JUMPI DUP3 MLOAD DUP3 PUSH0 PUSH2 0x100 EXP DUP2 SLOAD DUP2 PUSH20 0xFFFFFFFFFFFFFFFFFFFFFFFFFFFFFFFFFFFFFFFF MUL NOT AND SWAP1 DUP4 PUSH20 0xFFFFFFFFFFFFFFFFFFFFFFFFFFFFFFFFFFFFFFFF AND MUL OR SWAP1 SSTORE POP SWAP2 PUSH1 0x20 ADD SWAP2 SWAP1 PUSH1 0x1 ADD SWAP1 PUSH2 0x47A JUMP JUMPDEST JUMPDEST POP SWAP1 POP PUSH2 0x4DF SWAP2 SWAP1 PUSH2 0x4E3 JUMP JUMPDEST POP SWAP1 JUMP JUMPDEST JUMPDEST DUP1 DUP3 GT ISZERO PUSH2 0x4FA JUMPI PUSH0 DUP2 PUSH0 SWAP1 SSTORE POP PUSH1 0x1 ADD PUSH2 0x4E4 JUMP JUMPDEST POP SWAP1 JUMP JUMPDEST PUSH0 DUP2 SWAP1 POP SWAP2 SWAP1 POP JUMP JUMPDEST PUSH2 0x510 DUP2 PUSH2 0x4FE JUMP JUMPDEST DUP3 MSTORE POP POP JUMP JUMPDEST PUSH0 PUSH1 0x20 DUP3 ADD SWAP1 POP PUSH2 0x529 PUSH0 DUP4 ADD DUP5 PUSH2 0x507 JUMP JUMPDEST SWAP3 SWAP2 POP POP JUMP JUMPDEST PUSH0 PUSH0 REVERT JUMPDEST PUSH2 0x53C DUP2 PUSH2 0x4FE JUMP JUMPDEST DUP2 EQ PUSH2 0x546 JUMPI PUSH0 PUSH0 REVERT JUMPDEST POP JUMP JUMPDEST PUSH0 DUP2 CALLDATALOAD SWAP1 POP PUSH2 0x557 DUP2 PUSH2 0x533 JUMP JUMPDEST SWAP3 SWAP2 POP POP JUMP JUMPDEST PUSH0 PUSH1 0x20 DUP3 DUP5 SUB SLT ISZERO PUSH2 0x572 JUMPI PUSH2 0x571 PUSH2 0x52F JUMP JUMPDEST JUMPDEST PUSH0 PUSH2 0x57F DUP5 DUP3 DUP6 ADD PUSH2 0x549 JUMP JUMPDEST SWAP2 POP POP SWAP3 SWAP2 POP POP JUMP JUMPDEST PUSH0 PUSH20 0xFFFFFFFFFFFFFFFFFFFFFFFFFFFFFFFFFFFFFFFF DUP3 AND SWAP1 POP SWAP2 SWAP1 POP JUMP JUMPDEST PUSH0 PUSH2 0x5B1 DUP3 PUSH2 0x588 JUMP JUMPDEST SWAP1 POP SWAP2 SWAP1 POP JUMP JUMPDEST PUSH2 0x5C1 DUP2 PUSH2 0x5A7 JUMP JUMPDEST DUP3 MSTORE POP POP JUMP JUMPDEST PUSH0 PUSH1 0x20 DUP3 ADD SWAP1 POP PUSH2 0x5DA PUSH0 DUP4 ADD DUP5 PUSH2 0x5B8 JUMP JUMPDEST SWAP3 SWAP2 POP POP JUMP JUMPDEST PUSH0 PUSH2 0x5EA DUP3 PUSH2 0x588 JUMP JUMPDEST SWAP1 POP SWAP2 SWAP1 POP JUMP JUMPDEST PUSH2 0x5FA DUP2 PUSH2 0x5E0 JUMP JUMPDEST DUP3 MSTORE POP POP JUMP JUMPDEST PUSH0 PUSH1 0x20 DUP3 ADD SWAP1 POP PUSH2 0x613 PUSH0 DUP4 ADD DUP5 PUSH2 0x5F1 JUMP JUMPDEST SWAP3 SWAP2 POP POP JUMP JUMPDEST PUSH32 0x4E487B7100000000000000000000000000000000000000000000000000000000 PUSH0 MSTORE PUSH1 0x12 PUSH1 0x4 MSTORE PUSH1 0x24 PUSH0 REVERT JUMPDEST PUSH0 PUSH2 0x650 DUP3 PUSH2 0x4FE JUMP JUMPDEST SWAP2 POP PUSH2 0x65B DUP4 PUSH2 0x4FE JUMP JUMPDEST SWAP3 POP DUP3 PUSH2 0x66B JUMPI PUSH2 0x66A PUSH2 0x619 JUMP JUMPDEST JUMPDEST DUP3 DUP3 MOD SWAP1 POP SWAP3 SWAP2 POP POP JUMP JUMPDEST PUSH32 0x4E487B7100000000000000000000000000000000000000000000000000000000 PUSH0 MSTORE PUSH1 0x32 PUSH1 0x4 MSTORE PUSH1 0x24 PUSH0 REVERT JUMPDEST PUSH32 0x4E487B7100000000000000000000000000000000000000000000000000000000 PUSH0 MSTORE PUSH1 0x41 PUSH1 0x4 MSTORE PUSH1 0x24 PUSH0 REVERT JUMPDEST PUSH0 DUP2 SWAP1 POP SWAP2 SWAP1 POP JUMP JUMPDEST PUSH2 0x6EA PUSH2 0x6E5 DUP3 PUSH2 0x4FE JUMP JUMPDEST PUSH2 0x6D0 JUMP JUMPDEST DUP3 MSTORE POP POP JUMP JUMPDEST PUSH0 PUSH2 0x6FB DUP3 DUP7 PUSH2 0x6D9 JUMP JUMPDEST PUSH1 0x20 DUP3 ADD SWAP2 POP PUSH2 0x70B DUP3 DUP6 PUSH2 0x6D9 JUMP JUMPDEST PUSH1 0x20 DUP3 ADD SWAP2 POP PUSH2 0x71B DUP3 DUP5 PUSH2 0x6D9 JUMP JUMPDEST PUSH1 0x20 DUP3 ADD SWAP2 POP DUP2 SWAP1 POP SWAP5 SWAP4 POP POP POP POP JUMP INVALID LOG2 PUSH5 0x6970667358 0x22 SLT KECCAK256 0xD 0xD5 SWAP1 NUMBER 0xCB CALLDATASIZE CALL DUP6 PUSH18 0xEB36D74210D430E5CC1BB29B15A9AD1F07E9 NOT SWAP5 0xB5 0xD0 0x1E PUSH5 0x736F6C6343 STOP ADDMOD SHL STOP CALLER "
				},
				"gasEstimates": {
					"creation": {
						"codeDepositCost": "378000",
						"executionCost": "24680",
						"totalCost": "402680"
					},
					"external": {
						"getBalance()": "2480",
						"manager()": "2551",
						"participants(uint256)": "4966",
						"random()": "infinite",
						"selectWinner()": "infinite"
					}
				},
				"methodIdentifiers": {
					"getBalance()": "12065fe0",
					"manager()": "481c6a75",
					"participants(uint256)": "35c1d349",
					"random()": "5ec01e4d",
					"selectWinner()": "33a99e04"
				}
			},
			"storageLayout": {
				"storage": [
					{
						"astId": 3,
						"contract": "Lottery/lottery.sol:Lottery",
						"label": "manager",
						"offset": 0,
						"slot": "0",
						"type": "t_address"
					},
					{
						"astId": 6,
						"contract": "Lottery/lottery.sol:Lottery",
						"label": "participants",
						"offset": 0,
						"slot": "1",
						"type": "t_array(t_address_payable)dyn_storage"
					}
				],
				"types": {
					"t_address": {
						"encoding": "inplace",
						"label": "address",
						"numberOfBytes": "20"
					},
					"t_address_payable": {
						"encoding": "inplace",
						"label": "address payable",
						"numberOfBytes": "20"
					},
					"t_array(t_address_payable)dyn_storage": {
						"base": "t_address_payable",
						"encoding": "dynamic_array",
						"label": "address payable[]",
						"numberOfBytes": "32"
					}
				}
			},
			"userdoc": {
				"kind": "user",
				"methods": {},
				"version": 1
			}
		}
	}
}